:100000006F00405900000000F2010000F401000000
:1000100000000000000000000000000000000000E0
:1000200000000000000000000000000000000000D0
:100030009205000000000000920500000000000092
:100040009205000092050000920500009205000054
:100050009205000092050000920500009205000044
:100060009205000092050000920500009205000034
:100070009205000092050000920500009205000024
:100080009205000092050000920500009205000014
:10009000920500009205000092050000000000009B
:1000A000511126C022C206C4828282441244A24058
:1000B000310182802A86014593F6150091C232955E
:1000C00085810606F5F9828000000000634E050276
:1000D00063C305042E86AA857D5515C285466378BF
:1000E000B6006356C00006068606E36CB6FE014500
:1000F00063E4C500918D558D85820582F5FA828075
:100100008682C93F2E8582823305A04063D70500D1
:10011000B305B040C1B7B305B0408682653F330533
:10012000A0408282868263C70500634905005D376F
:100130002E858282B305B040E35B05FE3305A04007
:10014000513F3305B040828200003D432A876373EC
:10015000C3029377F700BDEFADE5937606FF3D8AC6
:10016000BA960CC34CC30CC74CC74107E36BD7FE10
:1001700011E28280B306C3408A0697020000969679
:100180006780A6002307B700A306B7002306B700C1
:10019000A305B7002305B700A304B7002304B700E5
:1001A000A303B7002303B700A302B7002302B700DD
:1001B000A301B7002301B700A300B7002300B700D5
:1001C000828093F5F50F93968500D58D9396050162
:1001D000D58D61B793962700970200009696868288
:1001E000E78086FA9680C1171D8F3E96E374C3F8A8
:1001F000A5B701A0B707EFBE37E700E09387070870
:100200003CC701A0EFF2DFE9130505E093171500E5
:10021000AA978A077D77AA97130777BF130500E08F
:1002200063CCE70005671307F73F1305F01F63452D
:10023000F700A9453E85593D930520351305052056
:10024000953D9305001959358DB5EFF27FE55111B4
:10025000854513050003912D0D448D4793048004BB
:100260008A85371501407C8022C226C423110100F3
:100270008D2B930700037C808A85C1473715014089
:1002800022C23EC4B92B26C4B714014085478A85D3
:10029000138504407C8022C2A923E1478A85138507
:1002A00004407C8022C202C42D2B3101FDBBEFF241
:1002B0003FDF2111614681450A85413D8545130592
:1002C0000020E523316537240140F1231305044064
:1002D000952EB7070E003EC68A8585471305044054
:1002E000230AF10002C002C202C402C8B52EB7053B
:1002F000000213050440E129854513050440652EDD
:1003000013050440C926930404402685D12675FDB3
:100310001305044037240140C126130404402285FC
:10032000C92675FD610151B3EFF29FD73724014013
:10033000AA859D46054613050440E126854513051B
:10034000044065269304044089452685A5296DDD72
:1003500013050440A52191BBEFF29FD4511105452F
:10036000292BE1224923D53599371145753FAA84B8
:100370001D455D3F2A84268571352AC02285593561
:10038000B7170140938707402AC23EC422458545DE
:10039000F9218547E30CF5FE0146C14537150140BB
:1003A000C12937150140014693050002D1211305EB
:1003B000E004852B636B94060245A5230546C145E1
:1003C000371501407521924702473385E740912B4D
:1003D00005469305000237150140592922458545F8
:1003E000BD296DDD371501404121937715002A8421
:1003F000054691E30146C145371501409529098815
:10040000054611E0014693050002371501408D2194
:100410001145193FAA841D45013F2A842685DD33F5
:100420002AC02285C5332AC295B71245DD29054663
:10043000930500023715014025298247124733856D
:10044000E740C5210546C14579B7EFF27FC53714AE
:1004500002401C403707FFF8414593E717001CC0D6
:100460005C40F98F5CC01C403707F7FE7D17F98FA1
:100470001CC01C403707FCFF7D17F98F1CC05C4077
:1004800041777D17F98F5CC0B7079F001CC4DD2E34
:100490001C4C93E707021CCCB717014003A7074089
:1004A000938607401377F7F023A0E74003A70740A0
:1004B0001367070823A0E74089479CCAB7F7FF1FC7
:1004C00003C5477D9307F00F6304F5007D895D2E1A
:1004D000B72702409843C176FD16719B98C3984395
:1004E0001367170098C3B7170240D843D8C3D8433F
:1004F000758FD8C3D843B7060001D8C39843558F2A
:1005000098C3984393166700E3DD06FED843B716F9
:100510000240719BD8C3D84313672700D8C3214733
:10052000DC42B18BE39EE7FE49B6EFF27FB73717A7
:1005300002405C43370400209146B18B1304040150
:100540006385D700A1466380D704B7376E019387D0
:1005500007601CC0B7160240DC420840918313F7C5
:10056000F700B707002093870700BA978C23DC4277
:1005700093F5F50F93F707083357B50099E3993EC4
:100580002A8718C01DB65C43B777DC02938707C083
:10059000C9B701A09701002093814128138181FEF2
:1005A0001305000A970500209385C5A517060020AE
:1005B000130646A563FAC5008322050023A0550053
:1005C00011059105E3EAC5FE1705000013058539FD
:1005D00097050020938505A317060020130606A49F
:1005E00063FAC5008322050023A05500110591057B
:1005F000E3EAC5FE17050020130545A29385818017
:100600006377B500232005001105E36DB5FEB72221
:10061000000093820288739002308D427390428072
:10062000970200009382029E93E232007390523050
:10063000EFF0BFE197020000938242D27390123430
:1006400073002030B727014093870740631DF500F2
:10065000EFF21FA5854513050020BD248145130534
:1006600000209D2499B482805C413707F1FF130775
:10067000F7EF7D8FDC419441A207D58FD98F5CC104
:100680001C4537F7F1FF1307D77FD4457D8F9C4971
:10069000D58F94458606D58FD98F1CC55C553707F5
:1006A00010FF7D177D8FDC29FD1793F7F70FD20719
:1006B000D98F5CD582801C4589C593E717001CC57E
:1006C0008280F99BEDBF1C4593E787001CC58280A3
:1006D00008450D81058982801C4593E747001CC5AC
:1006E000828008450981058982801C4591C53707AC
:1006F0005000D98F1CC582803707B0FF7D17F98F56
:10070000D5BFA54763F8B704138765FF9317170094
:100710008322C500BA971D433313F3001343F3FF3D
:1007200033735300B397F600B3E767005CC599478E
:1007300063E3C7047D16931726003E965859FD477C
:10074000B397C70093C7F7FFF98FB395C500DD8D49
:100750004CD982809397150003230501AE971D475E
:100760003317F7001347F7FF33776700B397F600A7
:100770005D8F18C96DBFB14763E2C7026516931755
:1007800026003E961859FD47B397C70093C7F7FF59
:10079000F98FB395C500DD8D0CD982804D161317E6
:1007A000260054553A96FD47B397C70093C7F7FF05
:1007B000F58FB395C500DD8D4CD582806845420527
:1007C0004181828008416D8D3335A00082805C417B
:1007D000370700FA7D17F98F5CC15C41DD8D4CC194
:1007E0008280944593F7060193F2F60081C7DC41BD
:1007F000B3E2F20083D3050093F7F30FA5C30323FD
:100800000500611122C226C08147130480029304AF
:10081000800405473316F70033F7C3006312E6027E
:10082000939527003D473317B7001347F7FF3373FE
:100830006700B395B20033E36500639D860050C93D
:1008400085072147E397E7FC124423206500824493
:1008500021018280E39696FE10C9DDB782800845AB
:100860006D8D3335A000828008454205418182802C
:1008700019C20CC982804CC98280B707002023AC02
:10088000A7008280371702401C430E0593F777F0CC
:100890005D8D08C38280B7160240DC4241771307A2
:1008A000F77FF98F5D8DC8C2828099C537170240E6
:1008B0001C4F5D8D08CF8280B7170240984F1345BB
:1008C000F5FF798D88CF828099C5371702405C4744
:1008D0005D8D48C78280B7170240D8471345F5FFA2
:1008E000798DC8C78280EFF2AFFBB707002003A560
:1008F0000701B7157A0093850520EFF0AFFD13755A
:10090000F50FB7070020238FA70093175500898F95
:100910008A073E950E05B7070020239EA7006FF0BB
:10092000CFF8EFF2EFF737F400E05C40AA85F99BCF
:100930005CC0B707002003C5E701EFF0AFF708C8B8
:10094000232404001C4093E717001CC0B7F700E005
:10095000D843058B75DF9843799B98C36FF0EFF40C
:10096000010203040506070801020304050607083F
:08097000006CDC020000000035
:00000001FF
